{
  "_format": "hh-sol-artifact-1",
  "contractName": "L1POIMarketplace",
  "sourceName": "contracts/L1POIMarketplace.sol",
  "abi": [
    {
      "inputs": [
        {
          "internalType": "address",
          "name": "_l2DestinationContract",
          "type": "address"
        },
        {
          "internalType": "uint256",
          "name": "_l2ChainId",
          "type": "uint256"
        }
      ],
      "stateMutability": "nonpayable",
      "type": "constructor"
    },
    {
      "anonymous": false,
      "inputs": [
        {
          "indexed": true,
          "internalType": "address",
          "name": "oldContract",
          "type": "address"
        },
        {
          "indexed": true,
          "internalType": "address",
          "name": "newContract",
          "type": "address"
        }
      ],
      "name": "L2ContractUpdated",
      "type": "event"
    },
    {
      "anonymous": false,
      "inputs": [
        {
          "indexed": true,
          "internalType": "bytes32",
          "name": "orderId",
          "type": "bytes32"
        },
        {
          "components": [
            {
              "internalType": "address",
              "name": "user",
              "type": "address"
            },
            {
              "internalType": "uint256",
              "name": "originChainId",
              "type": "uint256"
            },
            {
              "internalType": "uint32",
              "name": "openDeadline",
              "type": "uint32"
            },
            {
              "internalType": "uint32",
              "name": "fillDeadline",
              "type": "uint32"
            },
            {
              "internalType": "bytes32",
              "name": "orderId",
              "type": "bytes32"
            },
            {
              "components": [
                {
                  "internalType": "bytes32",
                  "name": "token",
                  "type": "bytes32"
                },
                {
                  "internalType": "uint256",
                  "name": "amount",
                  "type": "uint256"
                },
                {
                  "internalType": "bytes32",
                  "name": "recipient",
                  "type": "bytes32"
                },
                {
                  "internalType": "uint256",
                  "name": "chainId",
                  "type": "uint256"
                }
              ],
              "internalType": "struct IERC7683.Output[]",
              "name": "maxSpent",
              "type": "tuple[]"
            },
            {
              "components": [
                {
                  "internalType": "bytes32",
                  "name": "token",
                  "type": "bytes32"
                },
                {
                  "internalType": "uint256",
                  "name": "amount",
                  "type": "uint256"
                },
                {
                  "internalType": "bytes32",
                  "name": "recipient",
                  "type": "bytes32"
                },
                {
                  "internalType": "uint256",
                  "name": "chainId",
                  "type": "uint256"
                }
              ],
              "internalType": "struct IERC7683.Output[]",
              "name": "minReceived",
              "type": "tuple[]"
            },
            {
              "components": [
                {
                  "internalType": "uint64",
                  "name": "destinationChainId",
                  "type": "uint64"
                },
                {
                  "internalType": "bytes32",
                  "name": "destinationSettler",
                  "type": "bytes32"
                },
                {
                  "internalType": "bytes",
                  "name": "originData",
                  "type": "bytes"
                }
              ],
              "internalType": "struct IERC7683.FillInstruction[]",
              "name": "fillInstructions",
              "type": "tuple[]"
            }
          ],
          "indexed": false,
          "internalType": "struct IERC7683.ResolvedCrossChainOrder",
          "name": "resolvedOrder",
          "type": "tuple"
        }
      ],
      "name": "Open",
      "type": "event"
    },
    {
      "anonymous": false,
      "inputs": [
        {
          "indexed": true,
          "internalType": "uint256",
          "name": "poiId",
          "type": "uint256"
        },
        {
          "indexed": false,
          "internalType": "bool",
          "name": "verified",
          "type": "bool"
        }
      ],
      "name": "POIChallengeResolved",
      "type": "event"
    },
    {
      "anonymous": false,
      "inputs": [
        {
          "indexed": true,
          "internalType": "uint256",
          "name": "poiId",
          "type": "uint256"
        },
        {
          "indexed": false,
          "internalType": "address",
          "name": "challenger",
          "type": "address"
        }
      ],
      "name": "POIChallenged",
      "type": "event"
    },
    {
      "anonymous": false,
      "inputs": [
        {
          "indexed": true,
          "internalType": "uint256",
          "name": "poiId",
          "type": "uint256"
        },
        {
          "indexed": false,
          "internalType": "string",
          "name": "name",
          "type": "string"
        },
        {
          "indexed": true,
          "internalType": "address",
          "name": "owner",
          "type": "address"
        },
        {
          "indexed": false,
          "internalType": "uint256",
          "name": "stakeAmount",
          "type": "uint256"
        }
      ],
      "name": "POIRegistered",
      "type": "event"
    },
    {
      "anonymous": false,
      "inputs": [
        {
          "indexed": true,
          "internalType": "uint256",
          "name": "poiId",
          "type": "uint256"
        }
      ],
      "name": "POIRejected",
      "type": "event"
    },
    {
      "anonymous": false,
      "inputs": [
        {
          "indexed": true,
          "internalType": "uint256",
          "name": "poiId",
          "type": "uint256"
        },
        {
          "indexed": true,
          "internalType": "bytes32",
          "name": "orderId",
          "type": "bytes32"
        }
      ],
      "name": "POIVerificationRequested",
      "type": "event"
    },
    {
      "anonymous": false,
      "inputs": [
        {
          "indexed": true,
          "internalType": "uint256",
          "name": "poiId",
          "type": "uint256"
        },
        {
          "indexed": true,
          "internalType": "address",
          "name": "validator",
          "type": "address"
        },
        {
          "indexed": false,
          "internalType": "bytes",
          "name": "proof",
          "type": "bytes"
        }
      ],
      "name": "POIVerified",
      "type": "event"
    },
    {
      "anonymous": false,
      "inputs": [
        {
          "indexed": true,
          "internalType": "uint256",
          "name": "poiId",
          "type": "uint256"
        },
        {
          "indexed": true,
          "internalType": "address",
          "name": "validator",
          "type": "address"
        },
        {
          "indexed": false,
          "internalType": "uint256",
          "name": "amount",
          "type": "uint256"
        }
      ],
      "name": "RewardDistributed",
      "type": "event"
    },
    {
      "inputs": [],
      "name": "challengeDuration",
      "outputs": [
        {
          "internalType": "uint256",
          "name": "",
          "type": "uint256"
        }
      ],
      "stateMutability": "view",
      "type": "function"
    },
    {
      "inputs": [
        {
          "internalType": "uint256",
          "name": "poiId",
          "type": "uint256"
        }
      ],
      "name": "challengePOI",
      "outputs": [],
      "stateMutability": "payable",
      "type": "function"
    },
    {
      "inputs": [
        {
          "internalType": "uint256",
          "name": "poiId",
          "type": "uint256"
        }
      ],
      "name": "getPOI",
      "outputs": [
        {
          "components": [
            {
              "internalType": "string",
              "name": "name",
              "type": "string"
            },
            {
              "internalType": "address",
              "name": "owner",
              "type": "address"
            },
            {
              "internalType": "uint256",
              "name": "stakeAmount",
              "type": "uint256"
            },
            {
              "internalType": "bool",
              "name": "verified",
              "type": "bool"
            },
            {
              "internalType": "address",
              "name": "validator",
              "type": "address"
            },
            {
              "internalType": "bytes",
              "name": "proof",
              "type": "bytes"
            },
            {
              "internalType": "uint256",
              "name": "timestamp",
              "type": "uint256"
            },
            {
              "internalType": "bool",
              "name": "challenged",
              "type": "bool"
            },
            {
              "internalType": "uint256",
              "name": "challengeEndTime",
              "type": "uint256"
            },
            {
              "internalType": "enum L1POIMarketplace.VerificationState",
              "name": "state",
              "type": "uint8"
            }
          ],
          "internalType": "struct L1POIMarketplace.POI",
          "name": "",
          "type": "tuple"
        }
      ],
      "stateMutability": "view",
      "type": "function"
    },
    {
      "inputs": [],
      "name": "l2ChainId",
      "outputs": [
        {
          "internalType": "uint256",
          "name": "",
          "type": "uint256"
        }
      ],
      "stateMutability": "view",
      "type": "function"
    },
    {
      "inputs": [],
      "name": "l2DestinationContract",
      "outputs": [
        {
          "internalType": "address",
          "name": "",
          "type": "address"
        }
      ],
      "stateMutability": "view",
      "type": "function"
    },
    {
      "inputs": [
        {
          "components": [
            {
              "internalType": "uint32",
              "name": "fillDeadline",
              "type": "uint32"
            },
            {
              "internalType": "bytes32",
              "name": "orderDataType",
              "type": "bytes32"
            },
            {
              "internalType": "bytes",
              "name": "orderData",
              "type": "bytes"
            }
          ],
          "internalType": "struct IERC7683.OnchainCrossChainOrder",
          "name": "order",
          "type": "tuple"
        }
      ],
      "name": "open",
      "outputs": [],
      "stateMutability": "nonpayable",
      "type": "function"
    },
    {
      "inputs": [
        {
          "components": [
            {
              "internalType": "address",
              "name": "originSettler",
              "type": "address"
            },
            {
              "internalType": "address",
              "name": "user",
              "type": "address"
            },
            {
              "internalType": "uint256",
              "name": "nonce",
              "type": "uint256"
            },
            {
              "internalType": "uint256",
              "name": "originChainId",
              "type": "uint256"
            },
            {
              "internalType": "uint32",
              "name": "openDeadline",
              "type": "uint32"
            },
            {
              "internalType": "uint32",
              "name": "fillDeadline",
              "type": "uint32"
            },
            {
              "internalType": "bytes32",
              "name": "orderDataType",
              "type": "bytes32"
            },
            {
              "internalType": "bytes",
              "name": "orderData",
              "type": "bytes"
            }
          ],
          "internalType": "struct IERC7683.GaslessCrossChainOrder",
          "name": "order",
          "type": "tuple"
        },
        {
          "internalType": "bytes",
          "name": "signature",
          "type": "bytes"
        },
        {
          "internalType": "bytes",
          "name": "originFillerData",
          "type": "bytes"
        }
      ],
      "name": "openFor",
      "outputs": [],
      "stateMutability": "nonpayable",
      "type": "function"
    },
    {
      "inputs": [
        {
          "internalType": "bytes32",
          "name": "",
          "type": "bytes32"
        }
      ],
      "name": "orderToPoi",
      "outputs": [
        {
          "internalType": "uint256",
          "name": "",
          "type": "uint256"
        }
      ],
      "stateMutability": "view",
      "type": "function"
    },
    {
      "inputs": [],
      "name": "owner",
      "outputs": [
        {
          "internalType": "address",
          "name": "",
          "type": "address"
        }
      ],
      "stateMutability": "view",
      "type": "function"
    },
    {
      "inputs": [
        {
          "internalType": "uint256",
          "name": "",
          "type": "uint256"
        }
      ],
      "name": "pois",
      "outputs": [
        {
          "internalType": "string",
          "name": "name",
          "type": "string"
        },
        {
          "internalType": "address",
          "name": "owner",
          "type": "address"
        },
        {
          "internalType": "uint256",
          "name": "stakeAmount",
          "type": "uint256"
        },
        {
          "internalType": "bool",
          "name": "verified",
          "type": "bool"
        },
        {
          "internalType": "address",
          "name": "validator",
          "type": "address"
        },
        {
          "internalType": "bytes",
          "name": "proof",
          "type": "bytes"
        },
        {
          "internalType": "uint256",
          "name": "timestamp",
          "type": "uint256"
        },
        {
          "internalType": "bool",
          "name": "challenged",
          "type": "bool"
        },
        {
          "internalType": "uint256",
          "name": "challengeEndTime",
          "type": "uint256"
        },
        {
          "internalType": "enum L1POIMarketplace.VerificationState",
          "name": "state",
          "type": "uint8"
        }
      ],
      "stateMutability": "view",
      "type": "function"
    },
    {
      "inputs": [
        {
          "internalType": "string",
          "name": "name",
          "type": "string"
        },
        {
          "internalType": "uint256",
          "name": "stakeAmount",
          "type": "uint256"
        }
      ],
      "name": "registerPOI",
      "outputs": [],
      "stateMutability": "payable",
      "type": "function"
    },
    {
      "inputs": [
        {
          "components": [
            {
              "internalType": "uint32",
              "name": "fillDeadline",
              "type": "uint32"
            },
            {
              "internalType": "bytes32",
              "name": "orderDataType",
              "type": "bytes32"
            },
            {
              "internalType": "bytes",
              "name": "orderData",
              "type": "bytes"
            }
          ],
          "internalType": "struct IERC7683.OnchainCrossChainOrder",
          "name": "order",
          "type": "tuple"
        }
      ],
      "name": "resolve",
      "outputs": [
        {
          "components": [
            {
              "internalType": "address",
              "name": "user",
              "type": "address"
            },
            {
              "internalType": "uint256",
              "name": "originChainId",
              "type": "uint256"
            },
            {
              "internalType": "uint32",
              "name": "openDeadline",
              "type": "uint32"
            },
            {
              "internalType": "uint32",
              "name": "fillDeadline",
              "type": "uint32"
            },
            {
              "internalType": "bytes32",
              "name": "orderId",
              "type": "bytes32"
            },
            {
              "components": [
                {
                  "internalType": "bytes32",
                  "name": "token",
                  "type": "bytes32"
                },
                {
                  "internalType": "uint256",
                  "name": "amount",
                  "type": "uint256"
                },
                {
                  "internalType": "bytes32",
                  "name": "recipient",
                  "type": "bytes32"
                },
                {
                  "internalType": "uint256",
                  "name": "chainId",
                  "type": "uint256"
                }
              ],
              "internalType": "struct IERC7683.Output[]",
              "name": "maxSpent",
              "type": "tuple[]"
            },
            {
              "components": [
                {
                  "internalType": "bytes32",
                  "name": "token",
                  "type": "bytes32"
                },
                {
                  "internalType": "uint256",
                  "name": "amount",
                  "type": "uint256"
                },
                {
                  "internalType": "bytes32",
                  "name": "recipient",
                  "type": "bytes32"
                },
                {
                  "internalType": "uint256",
                  "name": "chainId",
                  "type": "uint256"
                }
              ],
              "internalType": "struct IERC7683.Output[]",
              "name": "minReceived",
              "type": "tuple[]"
            },
            {
              "components": [
                {
                  "internalType": "uint64",
                  "name": "destinationChainId",
                  "type": "uint64"
                },
                {
                  "internalType": "bytes32",
                  "name": "destinationSettler",
                  "type": "bytes32"
                },
                {
                  "internalType": "bytes",
                  "name": "originData",
                  "type": "bytes"
                }
              ],
              "internalType": "struct IERC7683.FillInstruction[]",
              "name": "fillInstructions",
              "type": "tuple[]"
            }
          ],
          "internalType": "struct IERC7683.ResolvedCrossChainOrder",
          "name": "",
          "type": "tuple"
        }
      ],
      "stateMutability": "view",
      "type": "function"
    },
    {
      "inputs": [
        {
          "components": [
            {
              "internalType": "address",
              "name": "originSettler",
              "type": "address"
            },
            {
              "internalType": "address",
              "name": "user",
              "type": "address"
            },
            {
              "internalType": "uint256",
              "name": "nonce",
              "type": "uint256"
            },
            {
              "internalType": "uint256",
              "name": "originChainId",
              "type": "uint256"
            },
            {
              "internalType": "uint32",
              "name": "openDeadline",
              "type": "uint32"
            },
            {
              "internalType": "uint32",
              "name": "fillDeadline",
              "type": "uint32"
            },
            {
              "internalType": "bytes32",
              "name": "orderDataType",
              "type": "bytes32"
            },
            {
              "internalType": "bytes",
              "name": "orderData",
              "type": "bytes"
            }
          ],
          "internalType": "struct IERC7683.GaslessCrossChainOrder",
          "name": "order",
          "type": "tuple"
        },
        {
          "internalType": "bytes",
          "name": "originFillerData",
          "type": "bytes"
        }
      ],
      "name": "resolveFor",
      "outputs": [
        {
          "components": [
            {
              "internalType": "address",
              "name": "user",
              "type": "address"
            },
            {
              "internalType": "uint256",
              "name": "originChainId",
              "type": "uint256"
            },
            {
              "internalType": "uint32",
              "name": "openDeadline",
              "type": "uint32"
            },
            {
              "internalType": "uint32",
              "name": "fillDeadline",
              "type": "uint32"
            },
            {
              "internalType": "bytes32",
              "name": "orderId",
              "type": "bytes32"
            },
            {
              "components": [
                {
                  "internalType": "bytes32",
                  "name": "token",
                  "type": "bytes32"
                },
                {
                  "internalType": "uint256",
                  "name": "amount",
                  "type": "uint256"
                },
                {
                  "internalType": "bytes32",
                  "name": "recipient",
                  "type": "bytes32"
                },
                {
                  "internalType": "uint256",
                  "name": "chainId",
                  "type": "uint256"
                }
              ],
              "internalType": "struct IERC7683.Output[]",
              "name": "maxSpent",
              "type": "tuple[]"
            },
            {
              "components": [
                {
                  "internalType": "bytes32",
                  "name": "token",
                  "type": "bytes32"
                },
                {
                  "internalType": "uint256",
                  "name": "amount",
                  "type": "uint256"
                },
                {
                  "internalType": "bytes32",
                  "name": "recipient",
                  "type": "bytes32"
                },
                {
                  "internalType": "uint256",
                  "name": "chainId",
                  "type": "uint256"
                }
              ],
              "internalType": "struct IERC7683.Output[]",
              "name": "minReceived",
              "type": "tuple[]"
            },
            {
              "components": [
                {
                  "internalType": "uint64",
                  "name": "destinationChainId",
                  "type": "uint64"
                },
                {
                  "internalType": "bytes32",
                  "name": "destinationSettler",
                  "type": "bytes32"
                },
                {
                  "internalType": "bytes",
                  "name": "originData",
                  "type": "bytes"
                }
              ],
              "internalType": "struct IERC7683.FillInstruction[]",
              "name": "fillInstructions",
              "type": "tuple[]"
            }
          ],
          "internalType": "struct IERC7683.ResolvedCrossChainOrder",
          "name": "",
          "type": "tuple"
        }
      ],
      "stateMutability": "view",
      "type": "function"
    },
    {
      "inputs": [
        {
          "internalType": "uint256",
          "name": "poiId",
          "type": "uint256"
        },
        {
          "internalType": "address",
          "name": "validator",
          "type": "address"
        },
        {
          "internalType": "bytes",
          "name": "proof",
          "type": "bytes"
        }
      ],
      "name": "resolvePOI",
      "outputs": [],
      "stateMutability": "nonpayable",
      "type": "function"
    },
    {
      "inputs": [
        {
          "internalType": "uint256",
          "name": "poiId",
          "type": "uint256"
        },
        {
          "internalType": "bool",
          "name": "verified",
          "type": "bool"
        }
      ],
      "name": "resolvePOIChallenge",
      "outputs": [],
      "stateMutability": "nonpayable",
      "type": "function"
    },
    {
      "inputs": [],
      "name": "totalPOIs",
      "outputs": [
        {
          "internalType": "uint256",
          "name": "",
          "type": "uint256"
        }
      ],
      "stateMutability": "view",
      "type": "function"
    },
    {
      "inputs": [
        {
          "internalType": "address",
          "name": "_l2DestinationContract",
          "type": "address"
        }
      ],
      "name": "updateL2Contract",
      "outputs": [],
      "stateMutability": "nonpayable",
      "type": "function"
    },
    {
      "inputs": [
        {
          "internalType": "uint256",
          "name": "",
          "type": "uint256"
        }
      ],
      "name": "usedNonces",
      "outputs": [
        {
          "internalType": "bool",
          "name": "",
          "type": "bool"
        }
      ],
      "stateMutability": "view",
      "type": "function"
    },
    {
      "inputs": [],
      "name": "validatorRewardPercentage",
      "outputs": [
        {
          "internalType": "uint256",
          "name": "",
          "type": "uint256"
        }
      ],
      "stateMutability": "view",
      "type": "function"
    }
  ],
  "bytecode": "0x60806040526203f480600355601e6004553480156200001d57600080fd5b506040516200423438038062004234833981810160405281019062000043919062000178565b816000806101000a81548173ffffffffffffffffffffffffffffffffffffffff021916908373ffffffffffffffffffffffffffffffffffffffff1602179055508060018190555033600560006101000a81548173ffffffffffffffffffffffffffffffffffffffff021916908373ffffffffffffffffffffffffffffffffffffffff1602179055505050620001bf565b600080fd5b600073ffffffffffffffffffffffffffffffffffffffff82169050919050565b60006200010582620000d8565b9050919050565b6200011781620000f8565b81146200012357600080fd5b50565b60008151905062000137816200010c565b92915050565b6000819050919050565b62000152816200013d565b81146200015e57600080fd5b50565b600081519050620001728162000147565b92915050565b60008060408385031215620001925762000191620000d3565b5b6000620001a28582860162000126565b9250506020620001b58582860162000161565b9150509250929050565b61406580620001cf6000396000f3fe6080604052600436106101145760003560e01c80636717e41c116100a0578063c551ddc911610064578063c551ddc9146103a9578063c96c9c7f146103ef578063d6ae3cd51461041a578063da8677de14610445578063e917a9621461046e57610114565b80636717e41c146102b0578063824a0878146102ed578063844fac8e1461032a5780638da5cb5b14610353578063ae5d32321461037e57610114565b806341b477dd116100e757806341b477dd146101da57806341c754dd1461021757806341f9535b146102335780634d2ff4c31461025e5780634e2dc79f1461028757610114565b80631f96cda61461011957806322bcd51a14610156578063292f2e0e146101935780632c353a58146101be575b600080fd5b34801561012557600080fd5b50610140600480360381019061013b9190611f31565b610497565b60405161014d9190612206565b60405180910390f35b34801561016257600080fd5b5061017d600480360381019061017891906122b2565b610724565b60405161018a919061265d565b60405180910390f35b34801561019f57600080fd5b506101a8610747565b6040516101b5919061268e565b60405180910390f35b6101d860048036038101906101d39190611f31565b61074d565b005b3480156101e657600080fd5b5061020160048036038101906101fc91906126c8565b610915565b60405161020e919061265d565b60405180910390f35b610231600480360381019061022c9190612841565b610958565b005b34801561023f57600080fd5b50610248610c94565b604051610255919061268e565b60405180910390f35b34801561026a57600080fd5b50610285600480360381019061028091906128c9565b610c9a565b005b34801561029357600080fd5b506102ae60048036038101906102a99190612922565b610dee565b005b3480156102bc57600080fd5b506102d760048036038101906102d29190611f31565b611070565b6040516102e49190612971565b60405180910390f35b3480156102f957600080fd5b50610314600480360381019061030f91906129b8565b611090565b604051610321919061268e565b60405180910390f35b34801561033657600080fd5b50610351600480360381019061034c91906129e5565b6110a8565b005b34801561035f57600080fd5b5061036861112a565b6040516103759190612aa5565b60405180910390f35b34801561038a57600080fd5b50610393611150565b6040516103a0919061268e565b60405180910390f35b3480156103b557600080fd5b506103d060048036038101906103cb9190611f31565b611156565b6040516103e69a99989796959493929190612b63565b60405180910390f35b3480156103fb57600080fd5b50610404611321565b6040516104119190612aa5565b60405180910390f35b34801561042657600080fd5b5061042f611345565b60405161043c919061268e565b60405180910390f35b34801561045157600080fd5b5061046c60048036038101906104679190612cae565b61134b565b005b34801561047a57600080fd5b50610495600480360381019061049091906126c8565b61166c565b005b61049f611d8c565b60066000838152602001908152602001600020604051806101400160405290816000820180546104ce90612d4c565b80601f01602080910402602001604051908101604052809291908181526020018280546104fa90612d4c565b80156105475780601f1061051c57610100808354040283529160200191610547565b820191906000526020600020905b81548152906001019060200180831161052a57829003601f168201915b505050505081526020016001820160009054906101000a900473ffffffffffffffffffffffffffffffffffffffff1673ffffffffffffffffffffffffffffffffffffffff1673ffffffffffffffffffffffffffffffffffffffff168152602001600282015481526020016003820160009054906101000a900460ff161515151581526020016003820160019054906101000a900473ffffffffffffffffffffffffffffffffffffffff1673ffffffffffffffffffffffffffffffffffffffff1673ffffffffffffffffffffffffffffffffffffffff16815260200160048201805461063190612d4c565b80601f016020809104026020016040519081016040528092919081815260200182805461065d90612d4c565b80156106aa5780601f1061067f576101008083540402835291602001916106aa565b820191906000526020600020905b81548152906001019060200180831161068d57829003601f168201915b50505050508152602001600582015481526020016006820160009054906101000a900460ff16151515158152602001600782015481526020016008820160009054906101000a900460ff166004811115610707576107066120ae565b5b6004811115610719576107186120ae565b5b815250509050919050565b61072c611e21565b61073e8461073990612e99565b6116a7565b90509392505050565b60035481565b67016345785d8a0000341015610798576040517f08c379a000000000000000000000000000000000000000000000000000000000815260040161078f90612f1e565b60405180910390fd5b6000600660008381526020019081526020016000209050600260048111156107c3576107c26120ae565b5b8160080160009054906101000a900460ff1660048111156107e7576107e66120ae565b5b14610827576040517f08c379a000000000000000000000000000000000000000000000000000000000815260040161081e90612f8a565b60405180910390fd5b8060060160009054906101000a900460ff1615610879576040517f08c379a000000000000000000000000000000000000000000000000000000000815260040161087090612ff6565b60405180910390fd5b60018160060160006101000a81548160ff021916908315150217905550600354426108a49190613045565b816007018190555060038160080160006101000a81548160ff021916908360048111156108d4576108d36120ae565b5b0217905550817f78dd0e5406d4a5bdf262d63a5684b0dca2ff81eaf8668ec7d51fa1f693f37dfa336040516109099190612aa5565b60405180910390a25050565b61091d611e21565b6040517f08c379a000000000000000000000000000000000000000000000000000000000815260040161094f906130eb565b60405180910390fd5b8034101561099b576040517f08c379a000000000000000000000000000000000000000000000000000000000815260040161099290613157565b60405180910390fd5b60008251116109df576040517f08c379a00000000000000000000000000000000000000000000000000000000081526004016109d6906131c3565b60405180910390fd5b6000600260008154809291906109f4906131e3565b9190505590506040518061014001604052808481526020013373ffffffffffffffffffffffffffffffffffffffff168152602001838152602001600015158152602001600073ffffffffffffffffffffffffffffffffffffffff168152602001600067ffffffffffffffff811115610a6f57610a6e612716565b5b6040519080825280601f01601f191660200182016040528015610aa15781602001600182028036833780820191505090505b5081526020014281526020016000151581526020016000815260200160006004811115610ad157610ad06120ae565b5b815250600660008381526020019081526020016000206000820151816000019081610afc91906133d7565b5060208201518160010160006101000a81548173ffffffffffffffffffffffffffffffffffffffff021916908373ffffffffffffffffffffffffffffffffffffffff1602179055506040820151816002015560608201518160030160006101000a81548160ff02191690831515021790555060808201518160030160016101000a81548173ffffffffffffffffffffffffffffffffffffffff021916908373ffffffffffffffffffffffffffffffffffffffff16021790555060a0820151816004019081610bca9190613504565b5060c0820151816005015560e08201518160060160006101000a81548160ff02191690831515021790555061010082015181600701556101208201518160080160006101000a81548160ff02191690836004811115610c2c57610c2b6120ae565b5b02179055509050503373ffffffffffffffffffffffffffffffffffffffff16817fe6b40d65eb81b7434e7a795471f594cbb786fe3ed884dff52b72db106cbdfad38585604051610c7d9291906135d6565b60405180910390a3610c8f81836119e3565b505050565b60025481565b600560009054906101000a900473ffffffffffffffffffffffffffffffffffffffff1673ffffffffffffffffffffffffffffffffffffffff163373ffffffffffffffffffffffffffffffffffffffff1614610d2a576040517f08c379a0000000000000000000000000000000000000000000000000000000008152600401610d2190613678565b60405180910390fd5b60008060009054906101000a900473ffffffffffffffffffffffffffffffffffffffff169050816000806101000a81548173ffffffffffffffffffffffffffffffffffffffff021916908373ffffffffffffffffffffffffffffffffffffffff1602179055508173ffffffffffffffffffffffffffffffffffffffff168173ffffffffffffffffffffffffffffffffffffffff167ffae671411bada13a19b8110a1dc6f71021f9663f17b07065fc60be661e7ef08360405160405180910390a35050565b600060066000848152602001908152602001600020905060036004811115610e1957610e186120ae565b5b8160080160009054906101000a900460ff166004811115610e3d57610e3c6120ae565b5b14610e7d576040517f08c379a0000000000000000000000000000000000000000000000000000000008152600401610e74906136e4565b60405180910390fd5b80600701544211610ec3576040517f08c379a0000000000000000000000000000000000000000000000000000000008152600401610eba90613750565b60405180910390fd5b8115610f185760028160080160006101000a81548160ff02191690836004811115610ef157610ef06120ae565b5b021790555060008160060160006101000a81548160ff021916908315150217905550611033565b60048160080160006101000a81548160ff02191690836004811115610f4057610f3f6120ae565b5b021790555060008160030160006101000a81548160ff021916908315150217905550600060646004548360020154610f789190613770565b610f8291906137e1565b90506000818360020154610f969190613812565b90508260010160009054906101000a900473ffffffffffffffffffffffffffffffffffffffff1673ffffffffffffffffffffffffffffffffffffffff166108fc829081150290604051600060405180830381858888f19350505050158015611002573d6000803e3d6000fd5b50847f0317dbdb85114efb2b96e75843720ccedfbc1433d7da2c43da68aa2f740fa1d660405160405180910390a250505b827f119f66899078fd24b28d5d329299be8baef53265c9d1cfe4b77edb1c797ec787836040516110639190612971565b60405180910390a2505050565b60086020528060005260406000206000915054906101000a900460ff1681565b60076020528060005260406000206000915090505481565b6000856040516020016110bb9190613a33565b60405160208183030381529060405280519060200120905060006110e7876110e290612e99565b6116a7565b9050817fa576d0af275d0c6207ef43ceee8c498a5d7a26b8157a32d3fdf361e64371628c82604051611119919061265d565b60405180910390a250505050505050565b600560009054906101000a900473ffffffffffffffffffffffffffffffffffffffff1681565b60045481565b600660205280600052604060002060009150905080600001805461117990612d4c565b80601f01602080910402602001604051908101604052809291908181526020018280546111a590612d4c565b80156111f25780601f106111c7576101008083540402835291602001916111f2565b820191906000526020600020905b8154815290600101906020018083116111d557829003601f168201915b5050505050908060010160009054906101000a900473ffffffffffffffffffffffffffffffffffffffff16908060020154908060030160009054906101000a900460ff16908060030160019054906101000a900473ffffffffffffffffffffffffffffffffffffffff169080600401805461126c90612d4c565b80601f016020809104026020016040519081016040528092919081815260200182805461129890612d4c565b80156112e55780601f106112ba576101008083540402835291602001916112e5565b820191906000526020600020905b8154815290600101906020018083116112c857829003601f168201915b5050505050908060050154908060060160009054906101000a900460ff16908060070154908060080160009054906101000a900460ff1690508a565b60008054906101000a900473ffffffffffffffffffffffffffffffffffffffff1681565b60015481565b600060066000858152602001908152602001600020905060016004811115611376576113756120ae565b5b8160080160009054906101000a900460ff16600481111561139a576113996120ae565b5b146113da576040517f08c379a00000000000000000000000000000000000000000000000000000000081526004016113d190613aa1565b60405180910390fd5b600073ffffffffffffffffffffffffffffffffffffffff168160010160009054906101000a900473ffffffffffffffffffffffffffffffffffffffff1673ffffffffffffffffffffffffffffffffffffffff160361146d576040517f08c379a000000000000000000000000000000000000000000000000000000000815260040161146490613b0d565b60405180910390fd5b8060030160009054906101000a900460ff16156114bf576040517f08c379a00000000000000000000000000000000000000000000000000000000081526004016114b690613b79565b60405180910390fd5b60018160030160006101000a81548160ff021916908315150217905550828160030160016101000a81548173ffffffffffffffffffffffffffffffffffffffff021916908373ffffffffffffffffffffffffffffffffffffffff160217905550818160040190816115309190613504565b5060028160080160006101000a81548160ff02191690836004811115611559576115586120ae565b5b02179055506000606460045483600201546115749190613770565b61157e91906137e1565b90508373ffffffffffffffffffffffffffffffffffffffff166108fc829081150290604051600060405180830381858888f193505050501580156115c6573d6000803e3d6000fd5b508373ffffffffffffffffffffffffffffffffffffffff16857f8b09f45232fdf06e72faf567d96e33229cf15ddc781081a99f7ae9f9983d1f608560405161160e9190613b99565b60405180910390a38373ffffffffffffffffffffffffffffffffffffffff16857fab7542bafced3da2d8c881cb2dd1de859fac7c20d3650d2902ad389a64e088838360405161165d919061268e565b60405180910390a35050505050565b6040517f08c379a000000000000000000000000000000000000000000000000000000000815260040161169e906130eb565b60405180910390fd5b6116af611e21565b60008260e001518060200190518101906116c99190613cfd565b90506000600167ffffffffffffffff8111156116e8576116e7612716565b5b60405190808252806020026020018201604052801561172157816020015b61170e611e8b565b8152602001906001900390816117065790505b509050604051806060016040528060015467ffffffffffffffff16815260200160008054906101000a900473ffffffffffffffffffffffffffffffffffffffff1673ffffffffffffffffffffffffffffffffffffffff1660001b8152602001838660200151876040015160405160200161179d93929190613dbc565b604051602081830303815290604052815250816000815181106117c3576117c2613dfa565b5b60200260200101819052506000600167ffffffffffffffff8111156117eb576117ea612716565b5b60405190808252806020026020018201604052801561182457816020015b611811611eb9565b8152602001906001900390816118095790505b50905060405180608001604052806000801b8152602001846060015181526020013073ffffffffffffffffffffffffffffffffffffffff1660001b8152602001468152508160008151811061187c5761187b613dfa565b5b60200260200101819052506000600167ffffffffffffffff8111156118a4576118a3612716565b5b6040519080825280602002602001820160405280156118dd57816020015b6118ca611eb9565b8152602001906001900390816118c25790505b50905060405180608001604052806000801b815260200185608001518152602001876020015173ffffffffffffffffffffffffffffffffffffffff1660001b81526020016001548152508160008151811061193b5761193a613dfa565b5b6020026020010181905250604051806101000160405280876020015173ffffffffffffffffffffffffffffffffffffffff16815260200187606001518152602001876080015163ffffffff1681526020018760a0015163ffffffff168152602001876040516020016119ad9190613ed9565b60405160208183030381529060405280519060200120815260200183815260200182815260200184815250945050505050919050565b60006040518060a00160405280848152602001600660008681526020019081526020016000206000018054611a1790612d4c565b80601f0160208091040260200160405190810160405280929190818152602001828054611a4390612d4c565b8015611a905780601f10611a6557610100808354040283529160200191611a90565b820191906000526020600020905b815481529060010190602001808311611a7357829003601f168201915b505050505081526020016006600086815260200190815260200160002060010160009054906101000a900473ffffffffffffffffffffffffffffffffffffffff1673ffffffffffffffffffffffffffffffffffffffff168152602001838152602001600a84611aff91906137e1565b81525090506000423385604051602001611b1b93929190613f64565b6040516020818303038152906040528051906020012060001c90506008600082815260200190815260200160002060009054906101000a900460ff1615611b97576040517f08c379a0000000000000000000000000000000000000000000000000000000008152600401611b8e90613fed565b60405180910390fd5b60016008600083815260200190815260200160002060006101000a81548160ff02191690831515021790555060006040518061010001604052803073ffffffffffffffffffffffffffffffffffffffff1681526020013373ffffffffffffffffffffffffffffffffffffffff1681526020018381526020014681526020016201518042611c249190613045565b63ffffffff1681526020016203f48042611c3e9190613045565b63ffffffff1681526020017fb47ea34cf1c4fdfd94cb4799fe2c822dd189b1597d2e931485fe7fa0b672f663815260200184604051602001611c80919061400d565b6040516020818303038152906040528152509050600081604051602001611ca79190613ed9565b60405160208183030381529060405280519060200120905085600760008381526020019081526020016000208190555060016006600088815260200190815260200160002060080160006101000a81548160ff02191690836004811115611d1157611d106120ae565b5b0217905550807fa576d0af275d0c6207ef43ceee8c498a5d7a26b8157a32d3fdf361e64371628c611d41846116a7565b604051611d4e919061265d565b60405180910390a280867f0faf5216bf39bd4aa0d36e5f493e404858a0779b1c8247d48e253916d9e53ca660405160405180910390a3505050505050565b60405180610140016040528060608152602001600073ffffffffffffffffffffffffffffffffffffffff16815260200160008152602001600015158152602001600073ffffffffffffffffffffffffffffffffffffffff16815260200160608152602001600081526020016000151581526020016000815260200160006004811115611e1b57611e1a6120ae565b5b81525090565b604051806101000160405280600073ffffffffffffffffffffffffffffffffffffffff16815260200160008152602001600063ffffffff168152602001600063ffffffff168152602001600080191681526020016060815260200160608152602001606081525090565b6040518060600160405280600067ffffffffffffffff16815260200160008019168152602001606081525090565b6040518060800160405280600080191681526020016000815260200160008019168152602001600081525090565b6000604051905090565b600080fd5b600080fd5b6000819050919050565b611f0e81611efb565b8114611f1957600080fd5b50565b600081359050611f2b81611f05565b92915050565b600060208284031215611f4757611f46611ef1565b5b6000611f5584828501611f1c565b91505092915050565b600081519050919050565b600082825260208201905092915050565b60005b83811015611f98578082015181840152602081019050611f7d565b60008484015250505050565b6000601f19601f8301169050919050565b6000611fc082611f5e565b611fca8185611f69565b9350611fda818560208601611f7a565b611fe381611fa4565b840191505092915050565b600073ffffffffffffffffffffffffffffffffffffffff82169050919050565b600061201982611fee565b9050919050565b6120298161200e565b82525050565b61203881611efb565b82525050565b60008115159050919050565b6120538161203e565b82525050565b600081519050919050565b600082825260208201905092915050565b600061208082612059565b61208a8185612064565b935061209a818560208601611f7a565b6120a381611fa4565b840191505092915050565b7f4e487b7100000000000000000000000000000000000000000000000000000000600052602160045260246000fd5b600581106120ee576120ed6120ae565b5b50565b60008190506120ff826120dd565b919050565b600061210f826120f1565b9050919050565b61211f81612104565b82525050565b60006101408301600083015184820360008601526121438282611fb5565b91505060208301516121586020860182612020565b50604083015161216b604086018261202f565b50606083015161217e606086018261204a565b5060808301516121916080860182612020565b5060a083015184820360a08601526121a98282612075565b91505060c08301516121be60c086018261202f565b5060e08301516121d160e086018261204a565b506101008301516121e661010086018261202f565b506101208301516121fb610120860182612116565b508091505092915050565b600060208201905081810360008301526122208184612125565b905092915050565b600080fd5b6000610100828403121561224457612243612228565b5b81905092915050565b600080fd5b600080fd5b600080fd5b60008083601f8401126122725761227161224d565b5b8235905067ffffffffffffffff81111561228f5761228e612252565b5b6020830191508360018202830111156122ab576122aa612257565b5b9250929050565b6000806000604084860312156122cb576122ca611ef1565b5b600084013567ffffffffffffffff8111156122e9576122e8611ef6565b5b6122f58682870161222d565b935050602084013567ffffffffffffffff81111561231657612315611ef6565b5b6123228682870161225c565b92509250509250925092565b600063ffffffff82169050919050565b6123478161232e565b82525050565b6000819050919050565b6123608161234d565b82525050565b600081519050919050565b600082825260208201905092915050565b6000819050602082019050919050565b6080820160008201516123a86000850182612357565b5060208201516123bb602085018261202f565b5060408201516123ce6040850182612357565b5060608201516123e1606085018261202f565b50505050565b60006123f38383612392565b60808301905092915050565b6000602082019050919050565b600061241782612366565b6124218185612371565b935061242c83612382565b8060005b8381101561245d57815161244488826123e7565b975061244f836123ff565b925050600181019050612430565b5085935050505092915050565b600081519050919050565b600082825260208201905092915050565b6000819050602082019050919050565b600067ffffffffffffffff82169050919050565b6124b381612496565b82525050565b60006060830160008301516124d160008601826124aa565b5060208301516124e46020860182612357565b50604083015184820360408601526124fc8282612075565b9150508091505092915050565b600061251583836124b9565b905092915050565b6000602082019050919050565b60006125358261246a565b61253f8185612475565b93508360208202850161255185612486565b8060005b8581101561258d578484038952815161256e8582612509565b94506125798361251d565b925060208a01995050600181019050612555565b50829750879550505050505092915050565b6000610100830160008301516125b86000860182612020565b5060208301516125cb602086018261202f565b5060408301516125de604086018261233e565b5060608301516125f1606086018261233e565b5060808301516126046080860182612357565b5060a083015184820360a086015261261c828261240c565b91505060c083015184820360c0860152612636828261240c565b91505060e083015184820360e0860152612650828261252a565b9150508091505092915050565b60006020820190508181036000830152612677818461259f565b905092915050565b61268881611efb565b82525050565b60006020820190506126a3600083018461267f565b92915050565b6000606082840312156126bf576126be612228565b5b81905092915050565b6000602082840312156126de576126dd611ef1565b5b600082013567ffffffffffffffff8111156126fc576126fb611ef6565b5b612708848285016126a9565b91505092915050565b600080fd5b7f4e487b7100000000000000000000000000000000000000000000000000000000600052604160045260246000fd5b61274e82611fa4565b810181811067ffffffffffffffff8211171561276d5761276c612716565b5b80604052505050565b6000612780611ee7565b905061278c8282612745565b919050565b600067ffffffffffffffff8211156127ac576127ab612716565b5b6127b582611fa4565b9050602081019050919050565b82818337600083830152505050565b60006127e46127df84612791565b612776565b905082815260208101848484011115612800576127ff612711565b5b61280b8482856127c2565b509392505050565b600082601f8301126128285761282761224d565b5b81356128388482602086016127d1565b91505092915050565b6000806040838503121561285857612857611ef1565b5b600083013567ffffffffffffffff81111561287657612875611ef6565b5b61288285828601612813565b925050602061289385828601611f1c565b9150509250929050565b6128a68161200e565b81146128b157600080fd5b50565b6000813590506128c38161289d565b92915050565b6000602082840312156128df576128de611ef1565b5b60006128ed848285016128b4565b91505092915050565b6128ff8161203e565b811461290a57600080fd5b50565b60008135905061291c816128f6565b92915050565b6000806040838503121561293957612938611ef1565b5b600061294785828601611f1c565b92505060206129588582860161290d565b9150509250929050565b61296b8161203e565b82525050565b60006020820190506129866000830184612962565b92915050565b6129958161234d565b81146129a057600080fd5b50565b6000813590506129b28161298c565b92915050565b6000602082840312156129ce576129cd611ef1565b5b60006129dc848285016129a3565b91505092915050565b600080600080600060608688031215612a0157612a00611ef1565b5b600086013567ffffffffffffffff811115612a1f57612a1e611ef6565b5b612a2b8882890161222d565b955050602086013567ffffffffffffffff811115612a4c57612a4b611ef6565b5b612a588882890161225c565b9450945050604086013567ffffffffffffffff811115612a7b57612a7a611ef6565b5b612a878882890161225c565b92509250509295509295909350565b612a9f8161200e565b82525050565b6000602082019050612aba6000830184612a96565b92915050565b600082825260208201905092915050565b6000612adc82611f5e565b612ae68185612ac0565b9350612af6818560208601611f7a565b612aff81611fa4565b840191505092915050565b600082825260208201905092915050565b6000612b2682612059565b612b308185612b0a565b9350612b40818560208601611f7a565b612b4981611fa4565b840191505092915050565b612b5d81612104565b82525050565b6000610140820190508181036000830152612b7e818d612ad1565b9050612b8d602083018c612a96565b612b9a604083018b61267f565b612ba7606083018a612962565b612bb46080830189612a96565b81810360a0830152612bc68188612b1b565b9050612bd560c083018761267f565b612be260e0830186612962565b612bf061010083018561267f565b612bfe610120830184612b54565b9b9a5050505050505050505050565b600067ffffffffffffffff821115612c2857612c27612716565b5b612c3182611fa4565b9050602081019050919050565b6000612c51612c4c84612c0d565b612776565b905082815260208101848484011115612c6d57612c6c612711565b5b612c788482856127c2565b509392505050565b600082601f830112612c9557612c9461224d565b5b8135612ca5848260208601612c3e565b91505092915050565b600080600060608486031215612cc757612cc6611ef1565b5b6000612cd586828701611f1c565b9350506020612ce6868287016128b4565b925050604084013567ffffffffffffffff811115612d0757612d06611ef6565b5b612d1386828701612c80565b9150509250925092565b7f4e487b7100000000000000000000000000000000000000000000000000000000600052602260045260246000fd5b60006002820490506001821680612d6457607f821691505b602082108103612d7757612d76612d1d565b5b50919050565b600080fd5b600080fd5b612d908161232e565b8114612d9b57600080fd5b50565b600081359050612dad81612d87565b92915050565b60006101008284031215612dca57612dc9612d7d565b5b612dd5610100612776565b90506000612de5848285016128b4565b6000830152506020612df9848285016128b4565b6020830152506040612e0d84828501611f1c565b6040830152506060612e2184828501611f1c565b6060830152506080612e3584828501612d9e565b60808301525060a0612e4984828501612d9e565b60a08301525060c0612e5d848285016129a3565b60c08301525060e082013567ffffffffffffffff811115612e8157612e80612d82565b5b612e8d84828501612c80565b60e08301525092915050565b6000612ea53683612db3565b9050919050565b7f4368616c6c656e676520726571756972657320302e3120455448206465706f7360008201527f6974000000000000000000000000000000000000000000000000000000000000602082015250565b6000612f08602283612ac0565b9150612f1382612eac565b604082019050919050565b60006020820190508181036000830152612f3781612efb565b9050919050565b7f504f49206e6f7420766572696669656400000000000000000000000000000000600082015250565b6000612f74601083612ac0565b9150612f7f82612f3e565b602082019050919050565b60006020820190508181036000830152612fa381612f67565b9050919050565b7f504f4920616c7265616479206368616c6c656e67656400000000000000000000600082015250565b6000612fe0601683612ac0565b9150612feb82612faa565b602082019050919050565b6000602082019050818103600083015261300f81612fd3565b9050919050565b7f4e487b7100000000000000000000000000000000000000000000000000000000600052601160045260246000fd5b600061305082611efb565b915061305b83611efb565b925082820190508082111561307357613072613016565b5b92915050565b7f4f6e2d636861696e206f7264657273206e6f7420737570706f7274656420666f60008201527f7220504f49206d61726b6574706c616365000000000000000000000000000000602082015250565b60006130d5603183612ac0565b91506130e082613079565b604082019050919050565b60006020820190508181036000830152613104816130c8565b9050919050565b7f496e73756666696369656e74207374616b6520616d6f756e7400000000000000600082015250565b6000613141601983612ac0565b915061314c8261310b565b602082019050919050565b6000602082019050818103600083015261317081613134565b9050919050565b7f4e616d652063616e6e6f7420626520656d707479000000000000000000000000600082015250565b60006131ad601483612ac0565b91506131b882613177565b602082019050919050565b600060208201905081810360008301526131dc816131a0565b9050919050565b60006131ee82611efb565b91507fffffffffffffffffffffffffffffffffffffffffffffffffffffffffffffffff82036132205761321f613016565b5b600182019050919050565b60008190508160005260206000209050919050565b60006020601f8301049050919050565b600082821b905092915050565b60006008830261328d7fffffffffffffffffffffffffffffffffffffffffffffffffffffffffffffffff82613250565b6132978683613250565b95508019841693508086168417925050509392505050565b6000819050919050565b60006132d46132cf6132ca84611efb565b6132af565b611efb565b9050919050565b6000819050919050565b6132ee836132b9565b6133026132fa826132db565b84845461325d565b825550505050565b600090565b61331761330a565b6133228184846132e5565b505050565b5b818110156133465761333b60008261330f565b600181019050613328565b5050565b601f82111561338b5761335c8161322b565b61336584613240565b81016020851015613374578190505b61338861338085613240565b830182613327565b50505b505050565b600082821c905092915050565b60006133ae60001984600802613390565b1980831691505092915050565b60006133c7838361339d565b9150826002028217905092915050565b6133e082611f5e565b67ffffffffffffffff8111156133f9576133f8612716565b5b6134038254612d4c565b61340e82828561334a565b600060209050601f831160018114613441576000841561342f578287015190505b61343985826133bb565b8655506134a1565b601f19841661344f8661322b565b60005b8281101561347757848901518255600182019150602085019450602081019050613452565b868310156134945784890151613490601f89168261339d565b8355505b6001600288020188555050505b505050505050565b60008190508160005260206000209050919050565b601f8211156134ff576134d0816134a9565b6134d984613240565b810160208510156134e8578190505b6134fc6134f485613240565b830182613327565b50505b505050565b61350d82612059565b67ffffffffffffffff81111561352657613525612716565b5b6135308254612d4c565b61353b8282856134be565b600060209050601f83116001811461356e576000841561355c578287015190505b61356685826133bb565b8655506135ce565b601f19841661357c866134a9565b60005b828110156135a45784890151825560018201915060208501945060208101905061357f565b868310156135c157848901516135bd601f89168261339d565b8355505b6001600288020188555050505b505050505050565b600060408201905081810360008301526135f08185612ad1565b90506135ff602083018461267f565b9392505050565b7f4f6e6c79206f776e65722063616e2063616c6c20746869732066756e6374696f60008201527f6e00000000000000000000000000000000000000000000000000000000000000602082015250565b6000613662602183612ac0565b915061366d82613606565b604082019050919050565b6000602082019050818103600083015261369181613655565b9050919050565b7f504f49206e6f74206368616c6c656e6765640000000000000000000000000000600082015250565b60006136ce601283612ac0565b91506136d982613698565b602082019050919050565b600060208201905081810360008301526136fd816136c1565b9050919050565b7f4368616c6c656e676520706572696f64206e6f74206f76657200000000000000600082015250565b600061373a601983612ac0565b915061374582613704565b602082019050919050565b600060208201905081810360008301526137698161372d565b9050919050565b600061377b82611efb565b915061378683611efb565b925082820261379481611efb565b915082820484148315176137ab576137aa613016565b5b5092915050565b7f4e487b7100000000000000000000000000000000000000000000000000000000600052601260045260246000fd5b60006137ec82611efb565b91506137f783611efb565b925082613807576138066137b2565b5b828204905092915050565b600061381d82611efb565b915061382883611efb565b92508282039050818111156138405761383f613016565b5b92915050565b600061385560208401846128b4565b905092915050565b600061386c6020840184611f1c565b905092915050565b60006138836020840184612d9e565b905092915050565b600061389a60208401846129a3565b905092915050565b600080fd5b600080fd5b600080fd5b600080833560016020038436030381126138ce576138cd6138ac565b5b83810192508235915060208301925067ffffffffffffffff8211156138f6576138f56138a2565b5b60018202360383131561390c5761390b6138a7565b5b509250929050565b60006139208385612064565b935061392d8385846127c2565b61393683611fa4565b840190509392505050565b600061010083016139556000840184613846565b6139626000860182612020565b506139706020840184613846565b61397d6020860182612020565b5061398b604084018461385d565b613998604086018261202f565b506139a6606084018461385d565b6139b3606086018261202f565b506139c16080840184613874565b6139ce608086018261233e565b506139dc60a0840184613874565b6139e960a086018261233e565b506139f760c084018461388b565b613a0460c0860182612357565b50613a1260e08401846138b1565b85830360e0870152613a25838284613914565b925050508091505092915050565b60006020820190508181036000830152613a4d8184613941565b905092915050565b7f504f49206e6f7420696e20766572696679696e67207374617465000000000000600082015250565b6000613a8b601a83612ac0565b9150613a9682613a55565b602082019050919050565b60006020820190508181036000830152613aba81613a7e565b9050919050565b7f504f4920646f6573206e6f742065786973740000000000000000000000000000600082015250565b6000613af7601283612ac0565b9150613b0282613ac1565b602082019050919050565b60006020820190508181036000830152613b2681613aea565b9050919050565b7f504f4920616c7265616479207665726966696564000000000000000000000000600082015250565b6000613b63601483612ac0565b9150613b6e82613b2d565b602082019050919050565b60006020820190508181036000830152613b9281613b56565b9050919050565b60006020820190508181036000830152613bb38184612b1b565b905092915050565b600081519050613bca81611f05565b92915050565b6000613be3613bde84612791565b612776565b905082815260208101848484011115613bff57613bfe612711565b5b613c0a848285611f7a565b509392505050565b600082601f830112613c2757613c2661224d565b5b8151613c37848260208601613bd0565b91505092915050565b600081519050613c4f8161289d565b92915050565b600060a08284031215613c6b57613c6a612d7d565b5b613c7560a0612776565b90506000613c8584828501613bbb565b600083015250602082015167ffffffffffffffff811115613ca957613ca8612d82565b5b613cb584828501613c12565b6020830152506040613cc984828501613c40565b6040830152506060613cdd84828501613bbb565b6060830152506080613cf184828501613bbb565b60808301525092915050565b600060208284031215613d1357613d12611ef1565b5b600082015167ffffffffffffffff811115613d3157613d30611ef6565b5b613d3d84828501613c55565b91505092915050565b600060a083016000830151613d5e600086018261202f565b5060208301518482036020860152613d768282611fb5565b9150506040830151613d8b6040860182612020565b506060830151613d9e606086018261202f565b506080830151613db1608086018261202f565b508091505092915050565b60006060820190508181036000830152613dd68186613d46565b9050613de56020830185612a96565b613df2604083018461267f565b949350505050565b7f4e487b7100000000000000000000000000000000000000000000000000000000600052603260045260246000fd5b600061010083016000830151613e426000860182612020565b506020830151613e556020860182612020565b506040830151613e68604086018261202f565b506060830151613e7b606086018261202f565b506080830151613e8e608086018261233e565b5060a0830151613ea160a086018261233e565b5060c0830151613eb460c0860182612357565b5060e083015184820360e0860152613ecc8282612075565b9150508091505092915050565b60006020820190508181036000830152613ef38184613e29565b905092915050565b6000819050919050565b613f16613f1182611efb565b613efb565b82525050565b60008160601b9050919050565b6000613f3482613f1c565b9050919050565b6000613f4682613f29565b9050919050565b613f5e613f598261200e565b613f3b565b82525050565b6000613f708286613f05565b602082019150613f808285613f4d565b601482019150613f908284613f05565b602082019150819050949350505050565b7f4e6f6e636520616c726561647920757365640000000000000000000000000000600082015250565b6000613fd7601283612ac0565b9150613fe282613fa1565b602082019050919050565b6000602082019050818103600083015261400681613fca565b9050919050565b600060208201905081810360008301526140278184613d46565b90509291505056fea26469706673582212206eabe334c460363ad383be6b10ef46815014d6f554862106effca0a848f573ba64736f6c63430008140033",
  "linkReferences": {},
  "deployedLinkReferences": {}
}