{
  "_format": "hh-sol-artifact-1",
  "contractName": "L2POIAuction",
  "sourceName": "contracts/L2POIAuction.sol",
  "abi": [
    {
      "inputs": [
        {
          "internalType": "address",
          "name": "_l1OriginContract",
          "type": "address"
        },
        {
          "internalType": "uint256",
          "name": "_l1ChainId",
          "type": "uint256"
        }
      ],
      "stateMutability": "nonpayable",
      "type": "constructor"
    },
    {
      "anonymous": false,
      "inputs": [
        {
          "indexed": true,
          "internalType": "uint256",
          "name": "poiId",
          "type": "uint256"
        },
        {
          "indexed": true,
          "internalType": "address",
          "name": "winningValidator",
          "type": "address"
        },
        {
          "indexed": false,
          "internalType": "uint256",
          "name": "winningBid",
          "type": "uint256"
        }
      ],
      "name": "AuctionEnded",
      "type": "event"
    },
    {
      "anonymous": false,
      "inputs": [
        {
          "indexed": true,
          "internalType": "uint256",
          "name": "poiId",
          "type": "uint256"
        },
        {
          "indexed": true,
          "internalType": "bytes32",
          "name": "orderId",
          "type": "bytes32"
        },
        {
          "indexed": false,
          "internalType": "uint256",
          "name": "bidStartAmount",
          "type": "uint256"
        },
        {
          "indexed": false,
          "internalType": "uint256",
          "name": "auctionEndTime",
          "type": "uint256"
        }
      ],
      "name": "AuctionStarted",
      "type": "event"
    },
    {
      "anonymous": false,
      "inputs": [
        {
          "indexed": true,
          "internalType": "uint256",
          "name": "poiId",
          "type": "uint256"
        },
        {
          "indexed": true,
          "internalType": "address",
          "name": "validator",
          "type": "address"
        },
        {
          "indexed": false,
          "internalType": "uint256",
          "name": "bidAmount",
          "type": "uint256"
        }
      ],
      "name": "BidPlaced",
      "type": "event"
    },
    {
      "anonymous": false,
      "inputs": [
        {
          "indexed": true,
          "internalType": "uint256",
          "name": "poiId",
          "type": "uint256"
        },
        {
          "indexed": true,
          "internalType": "bytes32",
          "name": "orderId",
          "type": "bytes32"
        },
        {
          "indexed": true,
          "internalType": "address",
          "name": "validator",
          "type": "address"
        }
      ],
      "name": "CrossChainResultSubmitted",
      "type": "event"
    },
    {
      "anonymous": false,
      "inputs": [
        {
          "indexed": true,
          "internalType": "uint256",
          "name": "poiId",
          "type": "uint256"
        },
        {
          "indexed": true,
          "internalType": "address",
          "name": "validator",
          "type": "address"
        },
        {
          "indexed": false,
          "internalType": "bytes",
          "name": "zkProof",
          "type": "bytes"
        }
      ],
      "name": "ProofSubmitted",
      "type": "event"
    },
    {
      "anonymous": false,
      "inputs": [
        {
          "indexed": true,
          "internalType": "address",
          "name": "validator",
          "type": "address"
        },
        {
          "indexed": false,
          "internalType": "uint256",
          "name": "stakedAmount",
          "type": "uint256"
        }
      ],
      "name": "ValidatorRegistered",
      "type": "event"
    },
    {
      "anonymous": false,
      "inputs": [
        {
          "indexed": true,
          "internalType": "uint256",
          "name": "poiId",
          "type": "uint256"
        },
        {
          "indexed": true,
          "internalType": "address",
          "name": "validator",
          "type": "address"
        },
        {
          "indexed": false,
          "internalType": "bytes",
          "name": "zkProof",
          "type": "bytes"
        }
      ],
      "name": "VerificationCompleted",
      "type": "event"
    },
    {
      "inputs": [],
      "name": "auctionDuration",
      "outputs": [
        {
          "internalType": "uint256",
          "name": "",
          "type": "uint256"
        }
      ],
      "stateMutability": "view",
      "type": "function"
    },
    {
      "inputs": [
        {
          "internalType": "uint256",
          "name": "poiId",
          "type": "uint256"
        }
      ],
      "name": "endAuction",
      "outputs": [],
      "stateMutability": "nonpayable",
      "type": "function"
    },
    {
      "inputs": [
        {
          "internalType": "bytes32",
          "name": "orderId",
          "type": "bytes32"
        },
        {
          "internalType": "bytes",
          "name": "originData",
          "type": "bytes"
        },
        {
          "internalType": "bytes",
          "name": "fillerData",
          "type": "bytes"
        }
      ],
      "name": "fill",
      "outputs": [],
      "stateMutability": "nonpayable",
      "type": "function"
    },
    {
      "inputs": [
        {
          "internalType": "uint256",
          "name": "poiId",
          "type": "uint256"
        }
      ],
      "name": "getAuctionDetails",
      "outputs": [
        {
          "internalType": "string",
          "name": "name",
          "type": "string"
        },
        {
          "internalType": "uint256",
          "name": "auctionEndTime",
          "type": "uint256"
        },
        {
          "internalType": "address",
          "name": "winningValidator",
          "type": "address"
        },
        {
          "internalType": "uint256",
          "name": "winningBid",
          "type": "uint256"
        },
        {
          "internalType": "bool",
          "name": "auctionEnded",
          "type": "bool"
        },
        {
          "internalType": "bool",
          "name": "verified",
          "type": "bool"
        }
      ],
      "stateMutability": "view",
      "type": "function"
    },
    {
      "inputs": [
        {
          "internalType": "uint256",
          "name": "poiId",
          "type": "uint256"
        }
      ],
      "name": "getWinningBid",
      "outputs": [
        {
          "internalType": "address",
          "name": "",
          "type": "address"
        },
        {
          "internalType": "uint256",
          "name": "",
          "type": "uint256"
        }
      ],
      "stateMutability": "view",
      "type": "function"
    },
    {
      "inputs": [],
      "name": "l1ChainId",
      "outputs": [
        {
          "internalType": "uint256",
          "name": "",
          "type": "uint256"
        }
      ],
      "stateMutability": "view",
      "type": "function"
    },
    {
      "inputs": [],
      "name": "l1OriginContract",
      "outputs": [
        {
          "internalType": "address",
          "name": "",
          "type": "address"
        }
      ],
      "stateMutability": "view",
      "type": "function"
    },
    {
      "inputs": [],
      "name": "minValidatorReputation",
      "outputs": [
        {
          "internalType": "uint256",
          "name": "",
          "type": "uint256"
        }
      ],
      "stateMutability": "view",
      "type": "function"
    },
    {
      "inputs": [],
      "name": "minValidatorStake",
      "outputs": [
        {
          "internalType": "uint256",
          "name": "",
          "type": "uint256"
        }
      ],
      "stateMutability": "view",
      "type": "function"
    },
    {
      "inputs": [
        {
          "internalType": "bytes32",
          "name": "",
          "type": "bytes32"
        }
      ],
      "name": "orderToPoi",
      "outputs": [
        {
          "internalType": "uint256",
          "name": "",
          "type": "uint256"
        }
      ],
      "stateMutability": "view",
      "type": "function"
    },
    {
      "inputs": [
        {
          "internalType": "uint256",
          "name": "poiId",
          "type": "uint256"
        },
        {
          "internalType": "uint256",
          "name": "bidAmount",
          "type": "uint256"
        }
      ],
      "name": "placeBid",
      "outputs": [],
      "stateMutability": "nonpayable",
      "type": "function"
    },
    {
      "inputs": [
        {
          "internalType": "bytes",
          "name": "reputationProof",
          "type": "bytes"
        }
      ],
      "name": "registerValidator",
      "outputs": [],
      "stateMutability": "payable",
      "type": "function"
    },
    {
      "inputs": [
        {
          "internalType": "uint256",
          "name": "poiId",
          "type": "uint256"
        },
        {
          "internalType": "bytes",
          "name": "zkProof",
          "type": "bytes"
        }
      ],
      "name": "submitPOIProof",
      "outputs": [],
      "stateMutability": "nonpayable",
      "type": "function"
    },
    {
      "inputs": [],
      "name": "totalValidators",
      "outputs": [
        {
          "internalType": "uint256",
          "name": "",
          "type": "uint256"
        }
      ],
      "stateMutability": "view",
      "type": "function"
    },
    {
      "inputs": [
        {
          "internalType": "address",
          "name": "",
          "type": "address"
        }
      ],
      "name": "validators",
      "outputs": [
        {
          "internalType": "bool",
          "name": "isRegistered",
          "type": "bool"
        },
        {
          "internalType": "uint256",
          "name": "totalVerified",
          "type": "uint256"
        },
        {
          "internalType": "uint256",
          "name": "reputation",
          "type": "uint256"
        },
        {
          "internalType": "uint256",
          "name": "stakedAmount",
          "type": "uint256"
        }
      ],
      "stateMutability": "view",
      "type": "function"
    }
  ],
  "bytecode": "0x60806040526201518060025560646003556706f05b59d3b200006004553480156200002957600080fd5b50604051620026c2380380620026c283398181016040528101906200004f919062000143565b816000806101000a81548173ffffffffffffffffffffffffffffffffffffffff021916908373ffffffffffffffffffffffffffffffffffffffff1602179055508060018190555050506200018a565b600080fd5b600073ffffffffffffffffffffffffffffffffffffffff82169050919050565b6000620000d082620000a3565b9050919050565b620000e281620000c3565b8114620000ee57600080fd5b50565b6000815190506200010281620000d7565b92915050565b6000819050919050565b6200011d8162000108565b81146200012957600080fd5b50565b6000815190506200013d8162000112565b92915050565b600080604083850312156200015d576200015c6200009e565b5b60006200016d85828601620000f1565b925050602062000180858286016200012c565b9150509250929050565b612528806200019a6000396000f3fe6080604052600436106100e85760003560e01c8063824a08781161008a578063c81b356b11610059578063c81b356b146102d4578063ef703cfc146102ff578063f20e5e351461032a578063fa52c7d81461036c576100e8565b8063824a08781461021c57806382e2c43f14610259578063a03b427e14610282578063b9a2de3a146102ab576100e8565b80631828d760116100c65780631828d7601461016e57806357c90de514610199578063602a9eee146101c25780636891939d146101de576100e8565b8063017ddd35146100ed5780630cbf54c81461011857806312622e5b14610143575b600080fd5b3480156100f957600080fd5b506101026103ac565b60405161010f91906111bb565b60405180910390f35b34801561012457600080fd5b5061012d6103b2565b60405161013a91906111bb565b60405180910390f35b34801561014f57600080fd5b506101586103b8565b60405161016591906111bb565b60405180910390f35b34801561017a57600080fd5b506101836103be565b60405161019091906111bb565b60405180910390f35b3480156101a557600080fd5b506101c060048036038101906101bb9190611216565b6103c4565b005b6101dc60048036038101906101d791906112bb565b610785565b005b3480156101ea57600080fd5b5061020560048036038101906102009190611308565b610985565b604051610213929190611376565b60405180910390f35b34801561022857600080fd5b50610243600480360381019061023e91906113d5565b6109d3565b60405161025091906111bb565b60405180910390f35b34801561026557600080fd5b50610280600480360381019061027b9190611402565b6109eb565b005b34801561028e57600080fd5b506102a960048036038101906102a491906115d8565b610a3d565b005b3480156102b757600080fd5b506102d260048036038101906102cd9190611308565b610cc7565b005b3480156102e057600080fd5b506102e9610e0f565b6040516102f691906111bb565b60405180910390f35b34801561030b57600080fd5b50610314610e15565b6040516103219190611634565b60405180910390f35b34801561033657600080fd5b50610351600480360381019061034c9190611308565b610e39565b604051610363969594939291906116e9565b60405180910390f35b34801561037857600080fd5b50610393600480360381019061038e919061177d565b610f52565b6040516103a394939291906117aa565b60405180910390f35b60045481565b60025481565b60015481565b60035481565b600760003373ffffffffffffffffffffffffffffffffffffffff1673ffffffffffffffffffffffffffffffffffffffff16815260200190815260200160002060000160009054906101000a900460ff16610453576040517f08c379a000000000000000000000000000000000000000000000000000000000815260040161044a9061183b565b60405180910390fd5b600354600760003373ffffffffffffffffffffffffffffffffffffffff1673ffffffffffffffffffffffffffffffffffffffff1681526020019081526020016000206002015410156104da576040517f08c379a00000000000000000000000000000000000000000000000000000000081526004016104d1906118a7565b60405180910390fd5b600060056000848152602001908152602001600020905080600501544210610537576040517f08c379a000000000000000000000000000000000000000000000000000000000815260040161052e90611913565b60405180910390fd5b8060070154821161057d576040517f08c379a00000000000000000000000000000000000000000000000000000000081526004016105749061197f565b60405180910390fd5b8181600c0160003373ffffffffffffffffffffffffffffffffffffffff1673ffffffffffffffffffffffffffffffffffffffff1681526020019081526020016000208190555060006001905060005b82600b018054905081101561066a573373ffffffffffffffffffffffffffffffffffffffff1683600b0182815481106106085761060761199f565b5b9060005260206000200160009054906101000a900473ffffffffffffffffffffffffffffffffffffffff1673ffffffffffffffffffffffffffffffffffffffff1603610657576000915061066a565b8080610662906119fd565b9150506105cc565b5080156106d75781600b01339080600181540180825580915050600190039060005260206000200160009091909190916101000a81548173ffffffffffffffffffffffffffffffffffffffff021916908373ffffffffffffffffffffffffffffffffffffffff1602179055505b816007015483111561073057828260070181905550338260060160006101000a81548173ffffffffffffffffffffffffffffffffffffffff021916908373ffffffffffffffffffffffffffffffffffffffff1602179055505b3373ffffffffffffffffffffffffffffffffffffffff16847f0e54eff26401bf69b81b26f60bd85ef47f5d85275c1d268d84f68d6897431c478560405161077791906111bb565b60405180910390a350505050565b6004543410156107ca576040517f08c379a00000000000000000000000000000000000000000000000000000000081526004016107c190611a91565b60405180910390fd5b600760003373ffffffffffffffffffffffffffffffffffffffff1673ffffffffffffffffffffffffffffffffffffffff16815260200190815260200160002060000160009054906101000a900460ff161561085a576040517f08c379a000000000000000000000000000000000000000000000000000000000815260040161085190611afd565b60405180910390fd5b600080838390501161086d576064610870565b60c85b60ff16905060405180608001604052806001151581526020016000815260200182815260200134815250600760003373ffffffffffffffffffffffffffffffffffffffff1673ffffffffffffffffffffffffffffffffffffffff16815260200190815260200160002060008201518160000160006101000a81548160ff0219169083151502179055506020820151816001015560408201518160020155606082015181600301559050506008600081548092919061092d906119fd565b91905055503373ffffffffffffffffffffffffffffffffffffffff167fb4a7f5c563a0e35593d156394ed681bdc9c39467d7d722749d23862c2e4b712c3460405161097891906111bb565b60405180910390a2505050565b60008060006005600085815260200190815260200160002090508060060160009054906101000a900473ffffffffffffffffffffffffffffffffffffffff1681600701549250925050915091565b60066020528060005260406000206000915090505481565b600080600086868101906109ff9190611cae565b92509250925060008360000151905080600660008b815260200190815260200160002081905550610a32818a8686610f8f565b505050505050505050565b60006005600084815260200190815260200160002090508060080160009054906101000a900460ff16610aa5576040517f08c379a0000000000000000000000000000000000000000000000000000000008152600401610a9c90611d69565b60405180910390fd5b8060060160009054906101000a900473ffffffffffffffffffffffffffffffffffffffff1673ffffffffffffffffffffffffffffffffffffffff163373ffffffffffffffffffffffffffffffffffffffff1614610b37576040517f08c379a0000000000000000000000000000000000000000000000000000000008152600401610b2e90611dd5565b60405180910390fd5b8060080160019054906101000a900460ff1615610b89576040517f08c379a0000000000000000000000000000000000000000000000000000000008152600401610b8090611e41565b60405180910390fd5b60018160080160016101000a81548160ff02191690831515021790555081816009019081610bb79190612078565b50600760003373ffffffffffffffffffffffffffffffffffffffff1673ffffffffffffffffffffffffffffffffffffffff1681526020019081526020016000206001016000815480929190610c0b906119fd565b9190505550600a600760003373ffffffffffffffffffffffffffffffffffffffff1673ffffffffffffffffffffffffffffffffffffffff1681526020019081526020016000206002016000828254610c63919061214a565b925050819055503373ffffffffffffffffffffffffffffffffffffffff16837f90888fd24f107accd3b0d464284b374d2c19a812489ba9354715081f6249b56084604051610cb191906121c8565b60405180910390a3610cc2836110a4565b505050565b60006005600083815260200190815260200160002090508060050154421015610d25576040517f08c379a0000000000000000000000000000000000000000000000000000000008152600401610d1c90612236565b60405180910390fd5b8060080160009054906101000a900460ff1615610d77576040517f08c379a0000000000000000000000000000000000000000000000000000000008152600401610d6e906122a2565b60405180910390fd5b60018160080160006101000a81548160ff0219169083151502179055508060060160009054906101000a900473ffffffffffffffffffffffffffffffffffffffff1673ffffffffffffffffffffffffffffffffffffffff16827fd2aa34a4fdbbc6dff6a3e56f46e0f3ae2a31d7785ff3487aa5c95c642acea5018360070154604051610e0391906111bb565b60405180910390a35050565b60085481565b60008054906101000a900473ffffffffffffffffffffffffffffffffffffffff1681565b60606000806000806000806005600089815260200190815260200160002090508060010181600501548260060160009054906101000a900473ffffffffffffffffffffffffffffffffffffffff1683600701548460080160009054906101000a900460ff168560080160019054906101000a900460ff16858054610ebc90611e9b565b80601f0160208091040260200160405190810160405280929190818152602001828054610ee890611e9b565b8015610f355780601f10610f0a57610100808354040283529160200191610f35565b820191906000526020600020905b815481529060010190602001808311610f1857829003601f168201915b505050505095509650965096509650965096505091939550919395565b60076020528060005260406000206000915090508060000160009054906101000a900460ff16908060010154908060020154908060030154905084565b60006005600086815260200190815260200160002090508481600001819055508260200151816001019081610fc4919061231d565b50818160020160006101000a81548173ffffffffffffffffffffffffffffffffffffffff021916908373ffffffffffffffffffffffffffffffffffffffff160217905550826060015181600301819055508260800151816004018190555060025442611030919061214a565b81600501819055506001836080015161104991906123ef565b81600701819055508381600a018190555083857f2afd7834264ac22760a77d4a383bfc1c8b268560720149969d5c0fd0b4f43f6285608001518460050154604051611095929190612423565b60405180910390a35050505050565b60006005600083815260200190815260200160002090508060060160009054906101000a900473ffffffffffffffffffffffffffffffffffffffff1673ffffffffffffffffffffffffffffffffffffffff16827ffef57c6ac5a9cb86b443760c596d5b7212ba5b79afcea5ff6be782b715d3eda28360090160405161112991906124d0565b60405180910390a38060060160009054906101000a900473ffffffffffffffffffffffffffffffffffffffff1673ffffffffffffffffffffffffffffffffffffffff1681600a0154837fcdbee37f622c7263a025e4977057b1bf97ee6b51acfafaa4515e09846d3d20f960405160405180910390a45050565b6000819050919050565b6111b5816111a2565b82525050565b60006020820190506111d060008301846111ac565b92915050565b6000604051905090565b600080fd5b600080fd5b6111f3816111a2565b81146111fe57600080fd5b50565b600081359050611210816111ea565b92915050565b6000806040838503121561122d5761122c6111e0565b5b600061123b85828601611201565b925050602061124c85828601611201565b9150509250929050565b600080fd5b600080fd5b600080fd5b60008083601f84011261127b5761127a611256565b5b8235905067ffffffffffffffff8111156112985761129761125b565b5b6020830191508360018202830111156112b4576112b3611260565b5b9250929050565b600080602083850312156112d2576112d16111e0565b5b600083013567ffffffffffffffff8111156112f0576112ef6111e5565b5b6112fc85828601611265565b92509250509250929050565b60006020828403121561131e5761131d6111e0565b5b600061132c84828501611201565b91505092915050565b600073ffffffffffffffffffffffffffffffffffffffff82169050919050565b600061136082611335565b9050919050565b61137081611355565b82525050565b600060408201905061138b6000830185611367565b61139860208301846111ac565b9392505050565b6000819050919050565b6113b28161139f565b81146113bd57600080fd5b50565b6000813590506113cf816113a9565b92915050565b6000602082840312156113eb576113ea6111e0565b5b60006113f9848285016113c0565b91505092915050565b60008060008060006060868803121561141e5761141d6111e0565b5b600061142c888289016113c0565b955050602086013567ffffffffffffffff81111561144d5761144c6111e5565b5b61145988828901611265565b9450945050604086013567ffffffffffffffff81111561147c5761147b6111e5565b5b61148888828901611265565b92509250509295509295909350565b600080fd5b6000601f19601f8301169050919050565b7f4e487b7100000000000000000000000000000000000000000000000000000000600052604160045260246000fd5b6114e58261149c565b810181811067ffffffffffffffff82111715611504576115036114ad565b5b80604052505050565b60006115176111d6565b905061152382826114dc565b919050565b600067ffffffffffffffff821115611543576115426114ad565b5b61154c8261149c565b9050602081019050919050565b82818337600083830152505050565b600061157b61157684611528565b61150d565b90508281526020810184848401111561159757611596611497565b5b6115a2848285611559565b509392505050565b600082601f8301126115bf576115be611256565b5b81356115cf848260208601611568565b91505092915050565b600080604083850312156115ef576115ee6111e0565b5b60006115fd85828601611201565b925050602083013567ffffffffffffffff81111561161e5761161d6111e5565b5b61162a858286016115aa565b9150509250929050565b60006020820190506116496000830184611367565b92915050565b600081519050919050565b600082825260208201905092915050565b60005b8381101561168957808201518184015260208101905061166e565b60008484015250505050565b60006116a08261164f565b6116aa818561165a565b93506116ba81856020860161166b565b6116c38161149c565b840191505092915050565b60008115159050919050565b6116e3816116ce565b82525050565b600060c08201905081810360008301526117038189611695565b905061171260208301886111ac565b61171f6040830187611367565b61172c60608301866111ac565b61173960808301856116da565b61174660a08301846116da565b979650505050505050565b61175a81611355565b811461176557600080fd5b50565b60008135905061177781611751565b92915050565b600060208284031215611793576117926111e0565b5b60006117a184828501611768565b91505092915050565b60006080820190506117bf60008301876116da565b6117cc60208301866111ac565b6117d960408301856111ac565b6117e660608301846111ac565b95945050505050565b7f4e6f74206120726567697374657265642076616c696461746f72000000000000600082015250565b6000611825601a8361165a565b9150611830826117ef565b602082019050919050565b6000602082019050818103600083015261185481611818565b9050919050565b7f496e73756666696369656e742072657075746174696f6e000000000000000000600082015250565b600061189160178361165a565b915061189c8261185b565b602082019050919050565b600060208201905081810360008301526118c081611884565b9050919050565b7f41756374696f6e20656e64656400000000000000000000000000000000000000600082015250565b60006118fd600d8361165a565b9150611908826118c7565b602082019050919050565b6000602082019050818103600083015261192c816118f0565b9050919050565b7f42696420746f6f206c6f77000000000000000000000000000000000000000000600082015250565b6000611969600b8361165a565b915061197482611933565b602082019050919050565b600060208201905081810360008301526119988161195c565b9050919050565b7f4e487b7100000000000000000000000000000000000000000000000000000000600052603260045260246000fd5b7f4e487b7100000000000000000000000000000000000000000000000000000000600052601160045260246000fd5b6000611a08826111a2565b91507fffffffffffffffffffffffffffffffffffffffffffffffffffffffffffffffff8203611a3a57611a396119ce565b5b600182019050919050565b7f496e73756666696369656e74207374616b6520616d6f756e7400000000000000600082015250565b6000611a7b60198361165a565b9150611a8682611a45565b602082019050919050565b60006020820190508181036000830152611aaa81611a6e565b9050919050565b7f416c726561647920726567697374657265642061732076616c696461746f7200600082015250565b6000611ae7601f8361165a565b9150611af282611ab1565b602082019050919050565b60006020820190508181036000830152611b1681611ada565b9050919050565b600080fd5b600080fd5b600067ffffffffffffffff821115611b4257611b416114ad565b5b611b4b8261149c565b9050602081019050919050565b6000611b6b611b6684611b27565b61150d565b905082815260208101848484011115611b8757611b86611497565b5b611b92848285611559565b509392505050565b600082601f830112611baf57611bae611256565b5b8135611bbf848260208601611b58565b91505092915050565b600060a08284031215611bde57611bdd611b1d565b5b611be860a061150d565b90506000611bf884828501611201565b600083015250602082013567ffffffffffffffff811115611c1c57611c1b611b22565b5b611c2884828501611b9a565b6020830152506040611c3c84828501611768565b6040830152506060611c5084828501611201565b6060830152506080611c6484828501611201565b60808301525092915050565b6000611c7b82611335565b9050919050565b611c8b81611c70565b8114611c9657600080fd5b50565b600081359050611ca881611c82565b92915050565b600080600060608486031215611cc757611cc66111e0565b5b600084013567ffffffffffffffff811115611ce557611ce46111e5565b5b611cf186828701611bc8565b9350506020611d0286828701611c99565b9250506040611d1386828701611201565b9150509250925092565b7f41756374696f6e206e6f7420656e646564000000000000000000000000000000600082015250565b6000611d5360118361165a565b9150611d5e82611d1d565b602082019050919050565b60006020820190508181036000830152611d8281611d46565b9050919050565b7f4e6f74207468652077696e6e696e672076616c696461746f7200000000000000600082015250565b6000611dbf60198361165a565b9150611dca82611d89565b602082019050919050565b60006020820190508181036000830152611dee81611db2565b9050919050565b7f50726f6f6620616c7265616479207375626d6974746564000000000000000000600082015250565b6000611e2b60178361165a565b9150611e3682611df5565b602082019050919050565b60006020820190508181036000830152611e5a81611e1e565b9050919050565b600081519050919050565b7f4e487b7100000000000000000000000000000000000000000000000000000000600052602260045260246000fd5b60006002820490506001821680611eb357607f821691505b602082108103611ec657611ec5611e6c565b5b50919050565b60008190508160005260206000209050919050565b60006020601f8301049050919050565b600082821b905092915050565b600060088302611f2e7fffffffffffffffffffffffffffffffffffffffffffffffffffffffffffffffff82611ef1565b611f388683611ef1565b95508019841693508086168417925050509392505050565b6000819050919050565b6000611f75611f70611f6b846111a2565b611f50565b6111a2565b9050919050565b6000819050919050565b611f8f83611f5a565b611fa3611f9b82611f7c565b848454611efe565b825550505050565b600090565b611fb8611fab565b611fc3818484611f86565b505050565b5b81811015611fe757611fdc600082611fb0565b600181019050611fc9565b5050565b601f82111561202c57611ffd81611ecc565b61200684611ee1565b81016020851015612015578190505b61202961202185611ee1565b830182611fc8565b50505b505050565b600082821c905092915050565b600061204f60001984600802612031565b1980831691505092915050565b6000612068838361203e565b9150826002028217905092915050565b61208182611e61565b67ffffffffffffffff81111561209a576120996114ad565b5b6120a48254611e9b565b6120af828285611feb565b600060209050601f8311600181146120e257600084156120d0578287015190505b6120da858261205c565b865550612142565b601f1984166120f086611ecc565b60005b82811015612118578489015182556001820191506020850194506020810190506120f3565b868310156121355784890151612131601f89168261203e565b8355505b6001600288020188555050505b505050505050565b6000612155826111a2565b9150612160836111a2565b9250828201905080821115612178576121776119ce565b5b92915050565b600082825260208201905092915050565b600061219a82611e61565b6121a4818561217e565b93506121b481856020860161166b565b6121bd8161149c565b840191505092915050565b600060208201905081810360008301526121e2818461218f565b905092915050565b7f41756374696f6e206e6f7420656e646564207965740000000000000000000000600082015250565b600061222060158361165a565b915061222b826121ea565b602082019050919050565b6000602082019050818103600083015261224f81612213565b9050919050565b7f41756374696f6e20616c726561647920656e6465640000000000000000000000600082015250565b600061228c60158361165a565b915061229782612256565b602082019050919050565b600060208201905081810360008301526122bb8161227f565b9050919050565b60008190508160005260206000209050919050565b601f821115612318576122e9816122c2565b6122f284611ee1565b81016020851015612301578190505b61231561230d85611ee1565b830182611fc8565b50505b505050565b6123268261164f565b67ffffffffffffffff81111561233f5761233e6114ad565b5b6123498254611e9b565b6123548282856122d7565b600060209050601f8311600181146123875760008415612375578287015190505b61237f858261205c565b8655506123e7565b601f198416612395866122c2565b60005b828110156123bd57848901518255600182019150602085019450602081019050612398565b868310156123da57848901516123d6601f89168261203e565b8355505b6001600288020188555050505b505050505050565b60006123fa826111a2565b9150612405836111a2565b925082820390508181111561241d5761241c6119ce565b5b92915050565b600060408201905061243860008301856111ac565b61244560208301846111ac565b9392505050565b6000815461245981611e9b565b612463818661217e565b9450600182166000811461247e5760018114612494576124c7565b60ff1983168652811515602002860193506124c7565b61249d85611ecc565b60005b838110156124bf578154818901526001820191506020810190506124a0565b808801955050505b50505092915050565b600060208201905081810360008301526124ea818461244c565b90509291505056fea264697066735822122072b068e21f4b2edae381738a3c6641072431eab670b5f9b2ae28f656642a022864736f6c63430008140033",
  "linkReferences": {},
  "deployedLinkReferences": {}
}